{
    "_format": "hh-sol-artifact-1",
    "contractName": "CrowdFunding",
    "sourceName": "contracts/Contract.sol",
    "abi": [
        {
            "inputs": [
                {
                    "internalType": "uint256",
                    "name": "",
                    "type": "uint256"
                }
            ],
            "name": "campaigns",
            "outputs": [
                {
                    "internalType": "address",
                    "name": "owner",
                    "type": "address"
                },
                {
                    "internalType": "string",
                    "name": "title",
                    "type": "string"
                },
                {
                    "internalType": "string",
                    "name": "description",
                    "type": "string"
                },
                {
                    "internalType": "uint256",
                    "name": "target",
                    "type": "uint256"
                },
                {
                    "internalType": "uint256",
                    "name": "deadline",
                    "type": "uint256"
                },
                {
                    "internalType": "uint256",
                    "name": "amountCollected",
                    "type": "uint256"
                },
                {
                    "internalType": "string",
                    "name": "image",
                    "type": "string"
                },
                {
                    "internalType": "string",
                    "name": "workProof",
                    "type": "string"
                }
            ],
            "stateMutability": "view",
            "type": "function"
        },
        {
            "inputs": [
                {
                    "internalType": "address",
                    "name": "_owner",
                    "type": "address"
                },
                {
                    "internalType": "string",
                    "name": "_title",
                    "type": "string"
                },
                {
                    "internalType": "string",
                    "name": "_description",
                    "type": "string"
                },
                {
                    "internalType": "uint256",
                    "name": "_target",
                    "type": "uint256"
                },
                {
                    "internalType": "uint256",
                    "name": "_deadline",
                    "type": "uint256"
                },
                {
                    "internalType": "string",
                    "name": "_image",
                    "type": "string"
                },
                {
                    "internalType": "string",
                    "name": "_workProof",
                    "type": "string"
                }
            ],
            "name": "createCampaign",
            "outputs": [
                {
                    "internalType": "uint256",
                    "name": "",
                    "type": "uint256"
                }
            ],
            "stateMutability": "nonpayable",
            "type": "function"
        },
        {
            "inputs": [
                {
                    "internalType": "uint256",
                    "name": "_id",
                    "type": "uint256"
                }
            ],
            "name": "donateToCampaign",
            "outputs": [],
            "stateMutability": "payable",
            "type": "function"
        },
        {
            "inputs": [],
            "name": "getCampaigns",
            "outputs": [
                {
                    "components": [
                        {
                            "internalType": "address",
                            "name": "owner",
                            "type": "address"
                        },
                        {
                            "internalType": "string",
                            "name": "title",
                            "type": "string"
                        },
                        {
                            "internalType": "string",
                            "name": "description",
                            "type": "string"
                        },
                        {
                            "internalType": "uint256",
                            "name": "target",
                            "type": "uint256"
                        },
                        {
                            "internalType": "uint256",
                            "name": "deadline",
                            "type": "uint256"
                        },
                        {
                            "internalType": "uint256",
                            "name": "amountCollected",
                            "type": "uint256"
                        },
                        {
                            "internalType": "string",
                            "name": "image",
                            "type": "string"
                        },
                        {
                            "internalType": "address[]",
                            "name": "donators",
                            "type": "address[]"
                        },
                        {
                            "internalType": "uint256[]",
                            "name": "donations",
                            "type": "uint256[]"
                        },
                        {
                            "internalType": "string",
                            "name": "workProof",
                            "type": "string"
                        }
                    ],
                    "internalType": "struct CrowdFunding.Campaign[]",
                    "name": "",
                    "type": "tuple[]"
                }
            ],
            "stateMutability": "view",
            "type": "function"
        },
        {
            "inputs": [
                {
                    "internalType": "uint256",
                    "name": "_id",
                    "type": "uint256"
                }
            ],
            "name": "getDonators",
            "outputs": [
                {
                    "internalType": "address[]",
                    "name": "",
                    "type": "address[]"
                },
                {
                    "internalType": "uint256[]",
                    "name": "",
                    "type": "uint256[]"
                }
            ],
            "stateMutability": "view",
            "type": "function"
        },
        {
            "inputs": [],
            "name": "numberOfCampaigns",
            "outputs": [
                {
                    "internalType": "uint256",
                    "name": "",
                    "type": "uint256"
                }
            ],
            "stateMutability": "view",
            "type": "function"
        }
    ],
    "bytecode": "0x6080604052600060015534801561001557600080fd5b50611744806100256000396000f3fe6080604052600436106100555760003560e01c806307ca140d1461005a5780630b9124c2146100855780630fa91fa9146100c2578063141961bc1461010057806342a4fda814610144578063a6b0363314610160575b600080fd5b34801561006657600080fd5b5061006f61018b565b60405161007c91906114ce565b60405180910390f35b34801561009157600080fd5b506100ac60048036038101906100a79190610e23565b610191565b6040516100b991906114ce565b60405180910390f35b3480156100ce57600080fd5b506100e960048036038101906100e49190610f21565b6102d8565b6040516100f7929190611455565b60405180910390f35b34801561010c57600080fd5b5061012760048036038101906101229190610f21565b6103e8565b60405161013b9897969594939291906113bb565b60405180910390f35b61015e60048036038101906101599190610f21565b6106b0565b005b34801561016c57600080fd5b50610175610807565b604051610182919061148c565b60405180910390f35b60015481565b60008060008060015481526020019081526020016000209050428160040154106101f0576040517f08c379a00000000000000000000000000000000000000000000000000000000081526004016101e7906114ae565b60405180910390fd5b888160000160006101000a81548173ffffffffffffffffffffffffffffffffffffffff021916908373ffffffffffffffffffffffffffffffffffffffff1602179055508781600101908051906020019061024b929190610c9f565b5086816002019080519060200190610264929190610c9f565b508581600301819055508481600401819055506000816005018190555083816006019080519060200190610299929190610c9f565b50828160090190805190602001906102b2929190610c9f565b506001600081548092919060010191905055506001805403915050979650505050505050565b6060806000808481526020019081526020016000206007016000808581526020019081526020016000206008018180548060200260200160405190810160405280929190818152602001828054801561038657602002820191906000526020600020905b8160009054906101000a900473ffffffffffffffffffffffffffffffffffffffff1673ffffffffffffffffffffffffffffffffffffffff168152602001906001019080831161033c575b50505050509150808054806020026020016040519081016040528092919081815260200182805480156103d857602002820191906000526020600020905b8154815260200190600101908083116103c4575b5050505050905091509150915091565b60006020528060005260406000206000915090508060000160009054906101000a900473ffffffffffffffffffffffffffffffffffffffff1690806001018054600181600116156101000203166002900480601f0160208091040260200160405190810160405280929190818152602001828054600181600116156101000203166002900480156104ba5780601f1061048f576101008083540402835291602001916104ba565b820191906000526020600020905b81548152906001019060200180831161049d57829003601f168201915b505050505090806002018054600181600116156101000203166002900480601f0160208091040260200160405190810160405280929190818152602001828054600181600116156101000203166002900480156105585780601f1061052d57610100808354040283529160200191610558565b820191906000526020600020905b81548152906001019060200180831161053b57829003601f168201915b505050505090806003015490806004015490806005015490806006018054600181600116156101000203166002900480601f0160208091040260200160405190810160405280929190818152602001828054600181600116156101000203166002900480156106085780601f106105dd57610100808354040283529160200191610608565b820191906000526020600020905b8154815290600101906020018083116105eb57829003601f168201915b505050505090806009018054600181600116156101000203166002900480601f0160208091040260200160405190810160405280929190818152602001828054600181600116156101000203166002900480156106a65780601f1061067b576101008083540402835291602001916106a6565b820191906000526020600020905b81548152906001019060200180831161068957829003601f168201915b5050505050905088565b60003490506000806000848152602001908152602001600020905080600701339080600181540180825580915050600190039060005260206000200160009091909190916101000a81548173ffffffffffffffffffffffffffffffffffffffff021916908373ffffffffffffffffffffffffffffffffffffffff1602179055508060080182908060018154018082558091505060019003906000526020600020016000909190919091505560008160000160009054906101000a900473ffffffffffffffffffffffffffffffffffffffff1673ffffffffffffffffffffffffffffffffffffffff16836040516107a5906113a6565b60006040518083038185875af1925050503d80600081146107e2576040519150601f19603f3d011682016040523d82523d6000602084013e6107e7565b606091505b505090508015610801578282600501540182600501819055505b50505050565b60608060015467ffffffffffffffff8111801561082357600080fd5b5060405190808252806020026020018201604052801561085d57816020015b61084a610d1f565b8152602001906001900390816108425790505b50905060005b600154811015610c97576000806000838152602001908152602001600020905080604051806101400160405290816000820160009054906101000a900473ffffffffffffffffffffffffffffffffffffffff1673ffffffffffffffffffffffffffffffffffffffff1673ffffffffffffffffffffffffffffffffffffffff168152602001600182018054600181600116156101000203166002900480601f01602080910402602001604051908101604052809291908181526020018280546001816001161561010002031660029004801561097f5780601f106109545761010080835404028352916020019161097f565b820191906000526020600020905b81548152906001019060200180831161096257829003601f168201915b50505050508152602001600282018054600181600116156101000203166002900480601f016020809104026020016040519081016040528092919081815260200182805460018160011615610100020316600290048015610a215780601f106109f657610100808354040283529160200191610a21565b820191906000526020600020905b815481529060010190602001808311610a0457829003601f168201915b50505050508152602001600382015481526020016004820154815260200160058201548152602001600682018054600181600116156101000203166002900480601f016020809104026020016040519081016040528092919081815260200182805460018160011615610100020316600290048015610ae15780601f10610ab657610100808354040283529160200191610ae1565b820191906000526020600020905b815481529060010190602001808311610ac457829003601f168201915b5050505050815260200160078201805480602002602001604051908101604052809291908181526020018280548015610b6f57602002820191906000526020600020905b8160009054906101000a900473ffffffffffffffffffffffffffffffffffffffff1673ffffffffffffffffffffffffffffffffffffffff1681526020019060010190808311610b25575b5050505050815260200160088201805480602002602001604051908101604052809291908181526020018280548015610bc757602002820191906000526020600020905b815481526020019060010190808311610bb3575b50505050508152602001600982018054600181600116156101000203166002900480601f016020809104026020016040519081016040528092919081815260200182805460018160011615610100020316600290048015610c695780601f10610c3e57610100808354040283529160200191610c69565b820191906000526020600020905b815481529060010190602001808311610c4c57829003601f168201915b505050505081525050838381518110610c7e57fe5b6020026020010181905250508080600101915050610863565b508091505090565b828054600181600116156101000203166002900490600052602060002090601f016020900481019282601f10610ce057805160ff1916838001178555610d0e565b82800160010185558215610d0e579182015b82811115610d0d578251825591602001919060010190610cf2565b5b509050610d1b9190610d88565b5090565b604051806101400160405280600073ffffffffffffffffffffffffffffffffffffffff1681526020016060815260200160608152602001600081526020016000815260200160008152602001606081526020016060815260200160608152602001606081525090565b5b80821115610da1576000816000905550600101610d89565b5090565b600081359050610db4816116e0565b92915050565b600082601f830112610dcb57600080fd5b8135610dde610dd98261151a565b6114e9565b91508082526020830160208301858383011115610dfa57600080fd5b610e0583828461168b565b50505092915050565b600081359050610e1d816116f7565b92915050565b600080600080600080600060e0888a031215610e3e57600080fd5b6000610e4c8a828b01610da5565b975050602088013567ffffffffffffffff811115610e6957600080fd5b610e758a828b01610dba565b965050604088013567ffffffffffffffff811115610e9257600080fd5b610e9e8a828b01610dba565b9550506060610eaf8a828b01610e0e565b9450506080610ec08a828b01610e0e565b93505060a088013567ffffffffffffffff811115610edd57600080fd5b610ee98a828b01610dba565b92505060c088013567ffffffffffffffff811115610f0657600080fd5b610f128a828b01610dba565b91505092959891949750929550565b600060208284031215610f3357600080fd5b6000610f4184828501610e0e565b91505092915050565b6000610f568383610f8e565b60208301905092915050565b6000610f6e838361128b565b905092915050565b6000610f828383611388565b60208301905092915050565b610f978161164f565b82525050565b610fa68161164f565b82525050565b6000610fb78261157a565b610fc181856115cd565b9350610fcc8361154a565b8060005b83811015610ffd578151610fe48882610f4a565b9750610fef836115a6565b925050600181019050610fd0565b5085935050505092915050565b60006110158261157a565b61101f81856115de565b935061102a8361154a565b8060005b8381101561105b5781516110428882610f4a565b975061104d836115a6565b92505060018101905061102e565b5085935050505092915050565b600061107382611585565b61107d81856115ef565b93508360208202850161108f8561155a565b8060005b858110156110cb57848403895281516110ac8582610f62565b94506110b7836115b3565b925060208a01995050600181019050611093565b50829750879550505050505092915050565b60006110e882611590565b6110f28185611600565b93506110fd8361156a565b8060005b8381101561112e5781516111158882610f76565b9750611120836115c0565b925050600181019050611101565b5085935050505092915050565b600061114682611590565b6111508185611611565b935061115b8361156a565b8060005b8381101561118c5781516111738882610f76565b975061117e836115c0565b92505060018101905061115f565b5085935050505092915050565b60006111a48261159b565b6111ae818561162d565b93506111be81856020860161169a565b6111c7816116cf565b840191505092915050565b60006111dd8261159b565b6111e7818561163e565b93506111f781856020860161169a565b611200816116cf565b840191505092915050565b6000611218602c8361163e565b91507f54686520646561646c696e652073686f756c642062652061206461746520696e60008301527f20746865206675747572652e00000000000000000000000000000000000000006020830152604082019050919050565b600061127e600083611622565b9150600082019050919050565b6000610140830160008301516112a46000860182610f8e565b50602083015184820360208601526112bc8282611199565b915050604083015184820360408601526112d68282611199565b91505060608301516112eb6060860182611388565b5060808301516112fe6080860182611388565b5060a083015161131160a0860182611388565b5060c083015184820360c08601526113298282611199565b91505060e083015184820360e08601526113438282610fac565b91505061010083015184820361010086015261135f82826110dd565b91505061012083015184820361012086015261137b8282611199565b9150508091505092915050565b61139181611681565b82525050565b6113a081611681565b82525050565b60006113b182611271565b9150819050919050565b6000610100820190506113d1600083018b610f9d565b81810360208301526113e3818a6111d2565b905081810360408301526113f781896111d2565b90506114066060830188611397565b6114136080830187611397565b61142060a0830186611397565b81810360c083015261143281856111d2565b905081810360e083015261144681846111d2565b90509998505050505050505050565b6000604082019050818103600083015261146f818561100a565b90508181036020830152611483818461113b565b90509392505050565b600060208201905081810360008301526114a68184611068565b905092915050565b600060208201905081810360008301526114c78161120b565b9050919050565b60006020820190506114e36000830184611397565b92915050565b6000604051905081810181811067ffffffffffffffff821117156115105761150f6116cd565b5b8060405250919050565b600067ffffffffffffffff821115611535576115346116cd565b5b601f19601f8301169050602081019050919050565b6000819050602082019050919050565b6000819050602082019050919050565b6000819050602082019050919050565b600081519050919050565b600081519050919050565b600081519050919050565b600081519050919050565b6000602082019050919050565b6000602082019050919050565b6000602082019050919050565b600082825260208201905092915050565b600082825260208201905092915050565b600082825260208201905092915050565b600082825260208201905092915050565b600082825260208201905092915050565b600081905092915050565b600082825260208201905092915050565b600082825260208201905092915050565b600061165a82611661565b9050919050565b600073ffffffffffffffffffffffffffffffffffffffff82169050919050565b6000819050919050565b82818337600083830152505050565b60005b838110156116b857808201518184015260208101905061169d565b838111156116c7576000848401525b50505050565bfe5b6000601f19601f8301169050919050565b6116e98161164f565b81146116f457600080fd5b50565b61170081611681565b811461170b57600080fd5b5056fea26469706673582212202171112865a8261df6b7ee11adf97083cb2f787e639438412f158e9e994e3cad64736f6c63430007030033",
    "linkReferences": {},
    "deployedLinkReferences": {}
}